{
  "contractName": "Land",
  "abi": [
    {
      "inputs": [
        {
          "internalType": "string",
          "name": "_name",
          "type": "string"
        },
        {
          "internalType": "string",
          "name": "_symbol",
          "type": "string"
        },
        {
          "internalType": "uint256",
          "name": "_cost",
          "type": "uint256"
        }
      ],
      "stateMutability": "nonpayable",
      "type": "constructor"
    },
    {
      "anonymous": false,
      "inputs": [
        {
          "indexed": true,
          "internalType": "address",
          "name": "owner",
          "type": "address"
        },
        {
          "indexed": true,
          "internalType": "address",
          "name": "approved",
          "type": "address"
        },
        {
          "indexed": true,
          "internalType": "uint256",
          "name": "tokenId",
          "type": "uint256"
        }
      ],
      "name": "Approval",
      "type": "event"
    },
    {
      "anonymous": false,
      "inputs": [
        {
          "indexed": true,
          "internalType": "address",
          "name": "owner",
          "type": "address"
        },
        {
          "indexed": true,
          "internalType": "address",
          "name": "operator",
          "type": "address"
        },
        {
          "indexed": false,
          "internalType": "bool",
          "name": "approved",
          "type": "bool"
        }
      ],
      "name": "ApprovalForAll",
      "type": "event"
    },
    {
      "anonymous": false,
      "inputs": [
        {
          "indexed": true,
          "internalType": "address",
          "name": "from",
          "type": "address"
        },
        {
          "indexed": true,
          "internalType": "address",
          "name": "to",
          "type": "address"
        },
        {
          "indexed": true,
          "internalType": "uint256",
          "name": "tokenId",
          "type": "uint256"
        }
      ],
      "name": "Transfer",
      "type": "event"
    },
    {
      "inputs": [
        {
          "internalType": "address",
          "name": "to",
          "type": "address"
        },
        {
          "internalType": "uint256",
          "name": "tokenId",
          "type": "uint256"
        }
      ],
      "name": "approve",
      "outputs": [],
      "stateMutability": "nonpayable",
      "type": "function"
    },
    {
      "inputs": [
        {
          "internalType": "address",
          "name": "owner",
          "type": "address"
        }
      ],
      "name": "balanceOf",
      "outputs": [
        {
          "internalType": "uint256",
          "name": "",
          "type": "uint256"
        }
      ],
      "stateMutability": "view",
      "type": "function",
      "constant": true
    },
    {
      "inputs": [
        {
          "internalType": "uint256",
          "name": "",
          "type": "uint256"
        }
      ],
      "name": "buildings",
      "outputs": [
        {
          "internalType": "string",
          "name": "name",
          "type": "string"
        },
        {
          "internalType": "address",
          "name": "owner",
          "type": "address"
        },
        {
          "internalType": "int256",
          "name": "posX",
          "type": "int256"
        },
        {
          "internalType": "int256",
          "name": "posY",
          "type": "int256"
        },
        {
          "internalType": "int256",
          "name": "posZ",
          "type": "int256"
        },
        {
          "internalType": "uint256",
          "name": "sizeX",
          "type": "uint256"
        },
        {
          "internalType": "uint256",
          "name": "sizeY",
          "type": "uint256"
        },
        {
          "internalType": "uint256",
          "name": "sizeZ",
          "type": "uint256"
        }
      ],
      "stateMutability": "view",
      "type": "function",
      "constant": true
    },
    {
      "inputs": [],
      "name": "cost",
      "outputs": [
        {
          "internalType": "uint256",
          "name": "",
          "type": "uint256"
        }
      ],
      "stateMutability": "view",
      "type": "function",
      "constant": true
    },
    {
      "inputs": [
        {
          "internalType": "uint256",
          "name": "tokenId",
          "type": "uint256"
        }
      ],
      "name": "getApproved",
      "outputs": [
        {
          "internalType": "address",
          "name": "",
          "type": "address"
        }
      ],
      "stateMutability": "view",
      "type": "function",
      "constant": true
    },
    {
      "inputs": [
        {
          "internalType": "address",
          "name": "owner",
          "type": "address"
        },
        {
          "internalType": "address",
          "name": "operator",
          "type": "address"
        }
      ],
      "name": "isApprovedForAll",
      "outputs": [
        {
          "internalType": "bool",
          "name": "",
          "type": "bool"
        }
      ],
      "stateMutability": "view",
      "type": "function",
      "constant": true
    },
    {
      "inputs": [],
      "name": "maxSupply",
      "outputs": [
        {
          "internalType": "uint256",
          "name": "",
          "type": "uint256"
        }
      ],
      "stateMutability": "view",
      "type": "function",
      "constant": true
    },
    {
      "inputs": [],
      "name": "name",
      "outputs": [
        {
          "internalType": "string",
          "name": "",
          "type": "string"
        }
      ],
      "stateMutability": "view",
      "type": "function",
      "constant": true
    },
    {
      "inputs": [
        {
          "internalType": "uint256",
          "name": "tokenId",
          "type": "uint256"
        }
      ],
      "name": "ownerOf",
      "outputs": [
        {
          "internalType": "address",
          "name": "",
          "type": "address"
        }
      ],
      "stateMutability": "view",
      "type": "function",
      "constant": true
    },
    {
      "inputs": [
        {
          "internalType": "address",
          "name": "operator",
          "type": "address"
        },
        {
          "internalType": "bool",
          "name": "approved",
          "type": "bool"
        }
      ],
      "name": "setApprovalForAll",
      "outputs": [],
      "stateMutability": "nonpayable",
      "type": "function"
    },
    {
      "inputs": [
        {
          "internalType": "bytes4",
          "name": "interfaceId",
          "type": "bytes4"
        }
      ],
      "name": "supportsInterface",
      "outputs": [
        {
          "internalType": "bool",
          "name": "",
          "type": "bool"
        }
      ],
      "stateMutability": "view",
      "type": "function",
      "constant": true
    },
    {
      "inputs": [],
      "name": "symbol",
      "outputs": [
        {
          "internalType": "string",
          "name": "",
          "type": "string"
        }
      ],
      "stateMutability": "view",
      "type": "function",
      "constant": true
    },
    {
      "inputs": [
        {
          "internalType": "uint256",
          "name": "tokenId",
          "type": "uint256"
        }
      ],
      "name": "tokenURI",
      "outputs": [
        {
          "internalType": "string",
          "name": "",
          "type": "string"
        }
      ],
      "stateMutability": "view",
      "type": "function",
      "constant": true
    },
    {
      "inputs": [],
      "name": "totalSupply",
      "outputs": [
        {
          "internalType": "uint256",
          "name": "",
          "type": "uint256"
        }
      ],
      "stateMutability": "view",
      "type": "function",
      "constant": true
    },
    {
      "inputs": [
        {
          "internalType": "uint256",
          "name": "_id",
          "type": "uint256"
        }
      ],
      "name": "mint",
      "outputs": [],
      "stateMutability": "payable",
      "type": "function",
      "payable": true
    },
    {
      "inputs": [
        {
          "internalType": "address",
          "name": "from",
          "type": "address"
        },
        {
          "internalType": "address",
          "name": "to",
          "type": "address"
        },
        {
          "internalType": "uint256",
          "name": "tokenId",
          "type": "uint256"
        }
      ],
      "name": "transferFrom",
      "outputs": [],
      "stateMutability": "nonpayable",
      "type": "function"
    },
    {
      "inputs": [
        {
          "internalType": "address",
          "name": "from",
          "type": "address"
        },
        {
          "internalType": "address",
          "name": "to",
          "type": "address"
        },
        {
          "internalType": "uint256",
          "name": "tokenId",
          "type": "uint256"
        }
      ],
      "name": "safeTransferFrom",
      "outputs": [],
      "stateMutability": "nonpayable",
      "type": "function"
    },
    {
      "inputs": [
        {
          "internalType": "address",
          "name": "from",
          "type": "address"
        },
        {
          "internalType": "address",
          "name": "to",
          "type": "address"
        },
        {
          "internalType": "uint256",
          "name": "tokenId",
          "type": "uint256"
        },
        {
          "internalType": "bytes",
          "name": "_data",
          "type": "bytes"
        }
      ],
      "name": "safeTransferFrom",
      "outputs": [],
      "stateMutability": "nonpayable",
      "type": "function"
    },
    {
      "inputs": [],
      "name": "getBuildings",
      "outputs": [
        {
          "components": [
            {
              "internalType": "string",
              "name": "name",
              "type": "string"
            },
            {
              "internalType": "address",
              "name": "owner",
              "type": "address"
            },
            {
              "internalType": "int256",
              "name": "posX",
              "type": "int256"
            },
            {
              "internalType": "int256",
              "name": "posY",
              "type": "int256"
            },
            {
              "internalType": "int256",
              "name": "posZ",
              "type": "int256"
            },
            {
              "internalType": "uint256",
              "name": "sizeX",
              "type": "uint256"
            },
            {
              "internalType": "uint256",
              "name": "sizeY",
              "type": "uint256"
            },
            {
              "internalType": "uint256",
              "name": "sizeZ",
              "type": "uint256"
            }
          ],
          "internalType": "struct Land.Building[]",
          "name": "",
          "type": "tuple[]"
        }
      ],
      "stateMutability": "view",
      "type": "function",
      "constant": true
    },
    {
      "inputs": [
        {
          "internalType": "uint256",
          "name": "_id",
          "type": "uint256"
        }
      ],
      "name": "getBuilding",
      "outputs": [
        {
          "components": [
            {
              "internalType": "string",
              "name": "name",
              "type": "string"
            },
            {
              "internalType": "address",
              "name": "owner",
              "type": "address"
            },
            {
              "internalType": "int256",
              "name": "posX",
              "type": "int256"
            },
            {
              "internalType": "int256",
              "name": "posY",
              "type": "int256"
            },
            {
              "internalType": "int256",
              "name": "posZ",
              "type": "int256"
            },
            {
              "internalType": "uint256",
              "name": "sizeX",
              "type": "uint256"
            },
            {
              "internalType": "uint256",
              "name": "sizeY",
              "type": "uint256"
            },
            {
              "internalType": "uint256",
              "name": "sizeZ",
              "type": "uint256"
            }
          ],
          "internalType": "struct Land.Building",
          "name": "",
          "type": "tuple"
        }
      ],
      "stateMutability": "view",
      "type": "function",
      "constant": true
    }
  ],
  "bytecode": "0x6080604052670de0b6b3a764000060065560056007555f60085534801562000025575f80fd5b5060405162003d1e38038062003d1e83398181016040528101906200004b9190620008f3565b8282815f90816200005d919062000bb8565b5080600190816200006f919062000bb8565b5050508060068190555060096040518061010001604052806040518060400160405280600981526020017f436974792048616c6c000000000000000000000000000000000000000000000081525081526020015f73ffffffffffffffffffffffffffffffffffffffff1681526020015f81526020015f81526020015f8152602001600a8152602001600a8152602001600a815250908060018154018082558091505060019003905f5260205f2090600802015f909190919091505f820151815f0190816200013e919062000bb8565b506020820151816001015f6101000a81548173ffffffffffffffffffffffffffffffffffffffff021916908373ffffffffffffffffffffffffffffffffffffffff16021790555060408201518160020155606082015181600301556080820151816004015560a0820151816005015560c0820151816006015560e08201518160070155505060096040518061010001604052806040518060400160405280600781526020017f5374616469756d0000000000000000000000000000000000000000000000000081525081526020015f73ffffffffffffffffffffffffffffffffffffffff1681526020015f8152602001600a81526020015f8152602001600a8152602001600581526020016003815250908060018154018082558091505060019003905f5260205f2090600802015f909190919091505f820151815f01908162000289919062000bb8565b506020820151816001015f6101000a81548173ffffffffffffffffffffffffffffffffffffffff021916908373ffffffffffffffffffffffffffffffffffffffff16021790555060408201518160020155606082015181600301556080820151816004015560a0820151816005015560c0820151816006015560e08201518160070155505060096040518061010001604052806040518060400160405280600a81526020017f556e69766572736974790000000000000000000000000000000000000000000081525081526020015f73ffffffffffffffffffffffffffffffffffffffff1681526020015f81526020017ffffffffffffffffffffffffffffffffffffffffffffffffffffffffffffffff681526020015f8152602001600a8152602001600581526020016003815250908060018154018082558091505060019003905f5260205f2090600802015f909190919091505f820151815f019081620003f3919062000bb8565b506020820151816001015f6101000a81548173ffffffffffffffffffffffffffffffffffffffff021916908373ffffffffffffffffffffffffffffffffffffffff16021790555060408201518160020155606082015181600301556080820151816004015560a0820151816005015560c0820151816006015560e08201518160070155505060096040518061010001604052806040518060400160405280600481526020017f4d616c6c0000000000000000000000000000000000000000000000000000000081525081526020015f73ffffffffffffffffffffffffffffffffffffffff168152602001600a81526020015f81526020015f815260200160058152602001601981526020016005815250908060018154018082558091505060019003905f5260205f2090600802015f909190919091505f820151815f0190816200053e919062000bb8565b506020820151816001015f6101000a81548173ffffffffffffffffffffffffffffffffffffffff021916908373ffffffffffffffffffffffffffffffffffffffff16021790555060408201518160020155606082015181600301556080820151816004015560a0820151816005015560c0820151816006015560e08201518160070155505060096040518061010001604052806040518060400160405280600b81526020017f43696e656d612048616c6c00000000000000000000000000000000000000000081525081526020015f73ffffffffffffffffffffffffffffffffffffffff1681526020017ffffffffffffffffffffffffffffffffffffffffffffffffffffffffffffffff681526020015f81526020015f815260200160058152602001601981526020016005815250908060018154018082558091505060019003905f5260205f2090600802015f909190919091505f820151815f019081620006a8919062000bb8565b506020820151816001015f6101000a81548173ffffffffffffffffffffffffffffffffffffffff021916908373ffffffffffffffffffffffffffffffffffffffff16021790555060408201518160020155606082015181600301556080820151816004015560a0820151816005015560c0820151816006015560e08201518160070155505050505062000c9c565b5f604051905090565b5f80fd5b5f80fd5b5f80fd5b5f80fd5b5f601f19601f8301169050919050565b7f4e487b71000000000000000000000000000000000000000000000000000000005f52604160045260245ffd5b62000797826200074f565b810181811067ffffffffffffffff82111715620007b957620007b86200075f565b5b80604052505050565b5f620007cd62000736565b9050620007db82826200078c565b919050565b5f67ffffffffffffffff821115620007fd57620007fc6200075f565b5b62000808826200074f565b9050602081019050919050565b5f5b838110156200083457808201518184015260208101905062000817565b5f8484015250505050565b5f620008556200084f84620007e0565b620007c2565b9050828152602081018484840111156200087457620008736200074b565b5b6200088184828562000815565b509392505050565b5f82601f830112620008a0576200089f62000747565b5b8151620008b28482602086016200083f565b91505092915050565b5f819050919050565b620008cf81620008bb565b8114620008da575f80fd5b50565b5f81519050620008ed81620008c4565b92915050565b5f805f606084860312156200090d576200090c6200073f565b5b5f84015167ffffffffffffffff8111156200092d576200092c62000743565b5b6200093b8682870162000889565b935050602084015167ffffffffffffffff8111156200095f576200095e62000743565b5b6200096d8682870162000889565b92505060406200098086828701620008dd565b9150509250925092565b5f81519050919050565b7f4e487b71000000000000000000000000000000000000000000000000000000005f52602260045260245ffd5b5f6002820490506001821680620009d957607f821691505b602082108103620009ef57620009ee62000994565b5b50919050565b5f819050815f5260205f209050919050565b5f6020601f8301049050919050565b5f82821b905092915050565b5f6008830262000a537fffffffffffffffffffffffffffffffffffffffffffffffffffffffffffffffff8262000a16565b62000a5f868362000a16565b95508019841693508086168417925050509392505050565b5f819050919050565b5f62000aa062000a9a62000a9484620008bb565b62000a77565b620008bb565b9050919050565b5f819050919050565b62000abb8362000a80565b62000ad362000aca8262000aa7565b84845462000a22565b825550505050565b5f90565b62000ae962000adb565b62000af681848462000ab0565b505050565b5b8181101562000b1d5762000b115f8262000adf565b60018101905062000afc565b5050565b601f82111562000b6c5762000b3681620009f5565b62000b418462000a07565b8101602085101562000b51578190505b62000b6962000b608562000a07565b83018262000afb565b50505b505050565b5f82821c905092915050565b5f62000b8e5f198460080262000b71565b1980831691505092915050565b5f62000ba8838362000b7d565b9150826002028217905092915050565b62000bc3826200098a565b67ffffffffffffffff81111562000bdf5762000bde6200075f565b5b62000beb8254620009c1565b62000bf882828562000b21565b5f60209050601f83116001811462000c2e575f841562000c19578287015190505b62000c25858262000b9b565b86555062000c94565b601f19841662000c3e86620009f5565b5f5b8281101562000c675784890151825560018201915060208501945060208101905062000c40565b8683101562000c87578489015162000c83601f89168262000b7d565b8355505b6001600288020188555050505b505050505050565b6130748062000caa5f395ff3fe60806040526004361061011e575f3560e01c806370a082311161009f578063b88d4fde11610063578063b88d4fde146103f5578063c87b56dd1461041d578063d5abeb0114610459578063d9cf6a2614610483578063e985e9c5146104ad5761011e565b806370a082311461030f57806395d89b411461034b5780639dfd8b0214610375578063a0712d68146103b1578063a22cb465146103cd5761011e565b806318160ddd116100e657806318160ddd1461021657806323b872dd1461024057806342842e0e146102685780634c96a062146102905780636352211e146102d35761011e565b806301ffc9a71461012257806306fdde031461015e578063081812fc14610188578063095ea7b3146101c457806313faede6146101ec575b5f80fd5b34801561012d575f80fd5b5061014860048036038101906101439190611fba565b6104e9565b6040516101559190611fff565b60405180910390f35b348015610169575f80fd5b506101726105ca565b60405161017f91906120a2565b60405180910390f35b348015610193575f80fd5b506101ae60048036038101906101a991906120f5565b610659565b6040516101bb919061215f565b60405180910390f35b3480156101cf575f80fd5b506101ea60048036038101906101e591906121a2565b61069b565b005b3480156101f7575f80fd5b506102006107b1565b60405161020d91906121ef565b60405180910390f35b348015610221575f80fd5b5061022a6107b7565b60405161023791906121ef565b60405180910390f35b34801561024b575f80fd5b5061026660048036038101906102619190612208565b6107bd565b005b348015610273575f80fd5b5061028e60048036038101906102899190612208565b61088a565b005b34801561029b575f80fd5b506102b660048036038101906102b191906120f5565b6108a9565b6040516102ca989796959493929190612270565b60405180910390f35b3480156102de575f80fd5b506102f960048036038101906102f491906120f5565b6109a1565b604051610306919061215f565b60405180910390f35b34801561031a575f80fd5b50610335600480360381019061033091906122f3565b610a25565b60405161034291906121ef565b60405180910390f35b348015610356575f80fd5b5061035f610ad9565b60405161036c91906120a2565b60405180910390f35b348015610380575f80fd5b5061039b600480360381019061039691906120f5565b610b69565b6040516103a89190612440565b60405180910390f35b6103cb60048036038101906103c691906120f5565b610cd0565b005b3480156103d8575f80fd5b506103f360048036038101906103ee919061248a565b610e0d565b005b348015610400575f80fd5b5061041b600480360381019061041691906125f4565b610e23565b005b348015610428575f80fd5b50610443600480360381019061043e91906120f5565b610ef2565b60405161045091906120a2565b60405180910390f35b348015610464575f80fd5b5061046d610f57565b60405161047a91906121ef565b60405180910390f35b34801561048e575f80fd5b50610497610f5d565b6040516104a491906127dc565b60405180910390f35b3480156104b8575f80fd5b506104d360048036038101906104ce91906127fc565b6110da565b6040516104e09190611fff565b60405180910390f35b5f7f80ac58cd000000000000000000000000000000000000000000000000000000007bffffffffffffffffffffffffffffffffffffffffffffffffffffffff1916827bffffffffffffffffffffffffffffffffffffffffffffffffffffffff191614806105b357507f5b5e139f000000000000000000000000000000000000000000000000000000007bffffffffffffffffffffffffffffffffffffffffffffffffffffffff1916827bffffffffffffffffffffffffffffffffffffffffffffffffffffffff1916145b806105c357506105c282611168565b5b9050919050565b60605f80546105d890612867565b80601f016020809104026020016040519081016040528092919081815260200182805461060490612867565b801561064f5780601f106106265761010080835404028352916020019161064f565b820191905f5260205f20905b81548152906001019060200180831161063257829003601f168201915b5050505050905090565b5f610663826111d1565b60045f8381526020019081526020015f205f9054906101000a900473ffffffffffffffffffffffffffffffffffffffff169050919050565b5f6106a5826109a1565b90508073ffffffffffffffffffffffffffffffffffffffff168373ffffffffffffffffffffffffffffffffffffffff1603610715576040517f08c379a000000000000000000000000000000000000000000000000000000000815260040161070c90612907565b60405180910390fd5b8073ffffffffffffffffffffffffffffffffffffffff1661073461121c565b73ffffffffffffffffffffffffffffffffffffffff16148061076357506107628161075d61121c565b6110da565b5b6107a2576040517f08c379a000000000000000000000000000000000000000000000000000000000815260040161079990612995565b60405180910390fd5b6107ac8383611223565b505050565b60065481565b60085481565b6107ce6107c861121c565b826112d9565b61080d576040517f08c379a000000000000000000000000000000000000000000000000000000000815260040161080490612a23565b60405180910390fd5b81600960018361081d9190612a6e565b8154811061082e5761082d612aa1565b5b905f5260205f2090600802016001015f6101000a81548173ffffffffffffffffffffffffffffffffffffffff021916908373ffffffffffffffffffffffffffffffffffffffff16021790555061088583838361136d565b505050565b6108a483838360405180602001604052805f815250610e23565b505050565b600981815481106108b8575f80fd5b905f5260205f2090600802015f91509050805f0180546108d790612867565b80601f016020809104026020016040519081016040528092919081815260200182805461090390612867565b801561094e5780601f106109255761010080835404028352916020019161094e565b820191905f5260205f20905b81548152906001019060200180831161093157829003601f168201915b505050505090806001015f9054906101000a900473ffffffffffffffffffffffffffffffffffffffff16908060020154908060030154908060040154908060050154908060060154908060070154905088565b5f806109ac83611659565b90505f73ffffffffffffffffffffffffffffffffffffffff168173ffffffffffffffffffffffffffffffffffffffff1603610a1c576040517f08c379a0000000000000000000000000000000000000000000000000000000008152600401610a1390612b18565b60405180910390fd5b80915050919050565b5f8073ffffffffffffffffffffffffffffffffffffffff168273ffffffffffffffffffffffffffffffffffffffff1603610a94576040517f08c379a0000000000000000000000000000000000000000000000000000000008152600401610a8b90612ba6565b60405180910390fd5b60035f8373ffffffffffffffffffffffffffffffffffffffff1673ffffffffffffffffffffffffffffffffffffffff1681526020019081526020015f20549050919050565b606060018054610ae890612867565b80601f0160208091040260200160405190810160405280929190818152602001828054610b1490612867565b8015610b5f5780601f10610b3657610100808354040283529160200191610b5f565b820191905f5260205f20905b815481529060010190602001808311610b4257829003601f168201915b5050505050905090565b610b71611f00565b6009600183610b809190612a6e565b81548110610b9157610b90612aa1565b5b905f5260205f209060080201604051806101000160405290815f82018054610bb890612867565b80601f0160208091040260200160405190810160405280929190818152602001828054610be490612867565b8015610c2f5780601f10610c0657610100808354040283529160200191610c2f565b820191905f5260205f20905b815481529060010190602001808311610c1257829003601f168201915b50505050508152602001600182015f9054906101000a900473ffffffffffffffffffffffffffffffffffffffff1673ffffffffffffffffffffffffffffffffffffffff1673ffffffffffffffffffffffffffffffffffffffff16815260200160028201548152602001600382015481526020016004820154815260200160058201548152602001600682015481526020016007820154815250509050919050565b5f6008549050600754811115610ce4575f80fd5b5f73ffffffffffffffffffffffffffffffffffffffff166009600184610d0a9190612a6e565b81548110610d1b57610d1a612aa1565b5b905f5260205f2090600802016001015f9054906101000a900473ffffffffffffffffffffffffffffffffffffffff1673ffffffffffffffffffffffffffffffffffffffff1614610d69575f80fd5b670de0b6b3a7640000341015610d7d575f80fd5b336009600184610d8d9190612a6e565b81548110610d9e57610d9d612aa1565b5b905f5260205f2090600802016001015f6101000a81548173ffffffffffffffffffffffffffffffffffffffff021916908373ffffffffffffffffffffffffffffffffffffffff1602179055506001600854610df99190612bc4565b600881905550610e093383611692565b5050565b610e1f610e1861121c565b83836116af565b5050565b610e34610e2e61121c565b836112d9565b610e73576040517f08c379a0000000000000000000000000000000000000000000000000000000008152600401610e6a90612a23565b60405180910390fd5b826009600184610e839190612a6e565b81548110610e9457610e93612aa1565b5b905f5260205f2090600802016001015f6101000a81548173ffffffffffffffffffffffffffffffffffffffff021916908373ffffffffffffffffffffffffffffffffffffffff160217905550610eec84848484611816565b50505050565b6060610efd826111d1565b5f610f06611872565b90505f815111610f245760405180602001604052805f815250610f4f565b80610f2e84611888565b604051602001610f3f929190612c31565b6040516020818303038152906040525b915050919050565b60075481565b60606009805480602002602001604051908101604052809291908181526020015f905b828210156110d1578382905f5260205f209060080201604051806101000160405290815f82018054610fb190612867565b80601f0160208091040260200160405190810160405280929190818152602001828054610fdd90612867565b80156110285780601f10610fff57610100808354040283529160200191611028565b820191905f5260205f20905b81548152906001019060200180831161100b57829003601f168201915b50505050508152602001600182015f9054906101000a900473ffffffffffffffffffffffffffffffffffffffff1673ffffffffffffffffffffffffffffffffffffffff1673ffffffffffffffffffffffffffffffffffffffff168152602001600282015481526020016003820154815260200160048201548152602001600582015481526020016006820154815260200160078201548152505081526020019060010190610f80565b50505050905090565b5f60055f8473ffffffffffffffffffffffffffffffffffffffff1673ffffffffffffffffffffffffffffffffffffffff1681526020019081526020015f205f8373ffffffffffffffffffffffffffffffffffffffff1673ffffffffffffffffffffffffffffffffffffffff1681526020019081526020015f205f9054906101000a900460ff16905092915050565b5f7f01ffc9a7000000000000000000000000000000000000000000000000000000007bffffffffffffffffffffffffffffffffffffffffffffffffffffffff1916827bffffffffffffffffffffffffffffffffffffffffffffffffffffffff1916149050919050565b6111da81611952565b611219576040517f08c379a000000000000000000000000000000000000000000000000000000000815260040161121090612b18565b60405180910390fd5b50565b5f33905090565b8160045f8381526020019081526020015f205f6101000a81548173ffffffffffffffffffffffffffffffffffffffff021916908373ffffffffffffffffffffffffffffffffffffffff160217905550808273ffffffffffffffffffffffffffffffffffffffff16611293836109a1565b73ffffffffffffffffffffffffffffffffffffffff167f8c5be1e5ebec7d5bd14f71427d1e84f3dd0314c0f7b2291e5b200ac8c7c3b92560405160405180910390a45050565b5f806112e4836109a1565b90508073ffffffffffffffffffffffffffffffffffffffff168473ffffffffffffffffffffffffffffffffffffffff161480611326575061132581856110da565b5b8061136457508373ffffffffffffffffffffffffffffffffffffffff1661134c84610659565b73ffffffffffffffffffffffffffffffffffffffff16145b91505092915050565b8273ffffffffffffffffffffffffffffffffffffffff1661138d826109a1565b73ffffffffffffffffffffffffffffffffffffffff16146113e3576040517f08c379a00000000000000000000000000000000000000000000000000000000081526004016113da90612cc4565b60405180910390fd5b5f73ffffffffffffffffffffffffffffffffffffffff168273ffffffffffffffffffffffffffffffffffffffff1603611451576040517f08c379a000000000000000000000000000000000000000000000000000000000815260040161144890612d52565b60405180910390fd5b61145e8383836001611992565b8273ffffffffffffffffffffffffffffffffffffffff1661147e826109a1565b73ffffffffffffffffffffffffffffffffffffffff16146114d4576040517f08c379a00000000000000000000000000000000000000000000000000000000081526004016114cb90612cc4565b60405180910390fd5b60045f8281526020019081526020015f205f6101000a81549073ffffffffffffffffffffffffffffffffffffffff0219169055600160035f8573ffffffffffffffffffffffffffffffffffffffff1673ffffffffffffffffffffffffffffffffffffffff1681526020019081526020015f205f8282540392505081905550600160035f8473ffffffffffffffffffffffffffffffffffffffff1673ffffffffffffffffffffffffffffffffffffffff1681526020019081526020015f205f82825401925050819055508160025f8381526020019081526020015f205f6101000a81548173ffffffffffffffffffffffffffffffffffffffff021916908373ffffffffffffffffffffffffffffffffffffffff160217905550808273ffffffffffffffffffffffffffffffffffffffff168473ffffffffffffffffffffffffffffffffffffffff167fddf252ad1be2c89b69c2b068fc378daa952ba7f163c4a11628f55a4df523b3ef60405160405180910390a46116548383836001611998565b505050565b5f60025f8381526020019081526020015f205f9054906101000a900473ffffffffffffffffffffffffffffffffffffffff169050919050565b6116ab828260405180602001604052805f81525061199e565b5050565b8173ffffffffffffffffffffffffffffffffffffffff168373ffffffffffffffffffffffffffffffffffffffff160361171d576040517f08c379a000000000000000000000000000000000000000000000000000000000815260040161171490612dba565b60405180910390fd5b8060055f8573ffffffffffffffffffffffffffffffffffffffff1673ffffffffffffffffffffffffffffffffffffffff1681526020019081526020015f205f8473ffffffffffffffffffffffffffffffffffffffff1673ffffffffffffffffffffffffffffffffffffffff1681526020019081526020015f205f6101000a81548160ff0219169083151502179055508173ffffffffffffffffffffffffffffffffffffffff168373ffffffffffffffffffffffffffffffffffffffff167f17307eab39ab6107e8899845ad3d59bd9653f200f220920489ca2b5937696c31836040516118099190611fff565b60405180910390a3505050565b61182184848461136d565b61182d848484846119f8565b61186c576040517f08c379a000000000000000000000000000000000000000000000000000000000815260040161186390612e48565b60405180910390fd5b50505050565b606060405180602001604052805f815250905090565b60605f600161189684611b7a565b0190505f8167ffffffffffffffff8111156118b4576118b36124d0565b5b6040519080825280601f01601f1916602001820160405280156118e65781602001600182028036833780820191505090505b5090505f82602001820190505b600115611947578080600190039150507f3031323334353637383961626364656600000000000000000000000000000000600a86061a8153600a858161193c5761193b612e66565b5b0494505f85036118f3575b819350505050919050565b5f8073ffffffffffffffffffffffffffffffffffffffff1661197383611659565b73ffffffffffffffffffffffffffffffffffffffff1614159050919050565b50505050565b50505050565b6119a88383611ccb565b6119b45f8484846119f8565b6119f3576040517f08c379a00000000000000000000000000000000000000000000000000000000081526004016119ea90612e48565b60405180910390fd5b505050565b5f611a188473ffffffffffffffffffffffffffffffffffffffff16611ede565b15611b6d578373ffffffffffffffffffffffffffffffffffffffff1663150b7a02611a4161121c565b8786866040518563ffffffff1660e01b8152600401611a639493929190612ee5565b6020604051808303815f875af1925050508015611a9e57506040513d601f19601f82011682018060405250810190611a9b9190612f43565b60015b611b1d573d805f8114611acc576040519150601f19603f3d011682016040523d82523d5f602084013e611ad1565b606091505b505f815103611b15576040517f08c379a0000000000000000000000000000000000000000000000000000000008152600401611b0c90612e48565b60405180910390fd5b805181602001fd5b63150b7a0260e01b7bffffffffffffffffffffffffffffffffffffffffffffffffffffffff1916817bffffffffffffffffffffffffffffffffffffffffffffffffffffffff191614915050611b72565b600190505b949350505050565b5f805f90507a184f03e93ff9f4daa797ed6e38ed64bf6a1f0100000000000000008310611bd6577a184f03e93ff9f4daa797ed6e38ed64bf6a1f0100000000000000008381611bcc57611bcb612e66565b5b0492506040810190505b6d04ee2d6d415b85acef81000000008310611c13576d04ee2d6d415b85acef81000000008381611c0957611c08612e66565b5b0492506020810190505b662386f26fc100008310611c4257662386f26fc100008381611c3857611c37612e66565b5b0492506010810190505b6305f5e1008310611c6b576305f5e1008381611c6157611c60612e66565b5b0492506008810190505b6127108310611c90576127108381611c8657611c85612e66565b5b0492506004810190505b60648310611cb35760648381611ca957611ca8612e66565b5b0492506002810190505b600a8310611cc2576001810190505b80915050919050565b5f73ffffffffffffffffffffffffffffffffffffffff168273ffffffffffffffffffffffffffffffffffffffff1603611d39576040517f08c379a0000000000000000000000000000000000000000000000000000000008152600401611d3090612fb8565b60405180910390fd5b611d4281611952565b15611d82576040517f08c379a0000000000000000000000000000000000000000000000000000000008152600401611d7990613020565b60405180910390fd5b611d8f5f83836001611992565b611d9881611952565b15611dd8576040517f08c379a0000000000000000000000000000000000000000000000000000000008152600401611dcf90613020565b60405180910390fd5b600160035f8473ffffffffffffffffffffffffffffffffffffffff1673ffffffffffffffffffffffffffffffffffffffff1681526020019081526020015f205f82825401925050819055508160025f8381526020019081526020015f205f6101000a81548173ffffffffffffffffffffffffffffffffffffffff021916908373ffffffffffffffffffffffffffffffffffffffff160217905550808273ffffffffffffffffffffffffffffffffffffffff165f73ffffffffffffffffffffffffffffffffffffffff167fddf252ad1be2c89b69c2b068fc378daa952ba7f163c4a11628f55a4df523b3ef60405160405180910390a4611eda5f83836001611998565b5050565b5f808273ffffffffffffffffffffffffffffffffffffffff163b119050919050565b604051806101000160405280606081526020015f73ffffffffffffffffffffffffffffffffffffffff1681526020015f81526020015f81526020015f81526020015f81526020015f81526020015f81525090565b5f604051905090565b5f80fd5b5f80fd5b5f7fffffffff0000000000000000000000000000000000000000000000000000000082169050919050565b611f9981611f65565b8114611fa3575f80fd5b50565b5f81359050611fb481611f90565b92915050565b5f60208284031215611fcf57611fce611f5d565b5b5f611fdc84828501611fa6565b91505092915050565b5f8115159050919050565b611ff981611fe5565b82525050565b5f6020820190506120125f830184611ff0565b92915050565b5f81519050919050565b5f82825260208201905092915050565b5f5b8381101561204f578082015181840152602081019050612034565b5f8484015250505050565b5f601f19601f8301169050919050565b5f61207482612018565b61207e8185612022565b935061208e818560208601612032565b6120978161205a565b840191505092915050565b5f6020820190508181035f8301526120ba818461206a565b905092915050565b5f819050919050565b6120d4816120c2565b81146120de575f80fd5b50565b5f813590506120ef816120cb565b92915050565b5f6020828403121561210a57612109611f5d565b5b5f612117848285016120e1565b91505092915050565b5f73ffffffffffffffffffffffffffffffffffffffff82169050919050565b5f61214982612120565b9050919050565b6121598161213f565b82525050565b5f6020820190506121725f830184612150565b92915050565b6121818161213f565b811461218b575f80fd5b50565b5f8135905061219c81612178565b92915050565b5f80604083850312156121b8576121b7611f5d565b5b5f6121c58582860161218e565b92505060206121d6858286016120e1565b9150509250929050565b6121e9816120c2565b82525050565b5f6020820190506122025f8301846121e0565b92915050565b5f805f6060848603121561221f5761221e611f5d565b5b5f61222c8682870161218e565b935050602061223d8682870161218e565b925050604061224e868287016120e1565b9150509250925092565b5f819050919050565b61226a81612258565b82525050565b5f610100820190508181035f830152612289818b61206a565b9050612298602083018a612150565b6122a56040830189612261565b6122b26060830188612261565b6122bf6080830187612261565b6122cc60a08301866121e0565b6122d960c08301856121e0565b6122e660e08301846121e0565b9998505050505050505050565b5f6020828403121561230857612307611f5d565b5b5f6123158482850161218e565b91505092915050565b5f82825260208201905092915050565b5f61233882612018565b612342818561231e565b9350612352818560208601612032565b61235b8161205a565b840191505092915050565b61236f8161213f565b82525050565b61237e81612258565b82525050565b61238d816120c2565b82525050565b5f61010083015f8301518482035f8601526123ae828261232e565b91505060208301516123c36020860182612366565b5060408301516123d66040860182612375565b5060608301516123e96060860182612375565b5060808301516123fc6080860182612375565b5060a083015161240f60a0860182612384565b5060c083015161242260c0860182612384565b5060e083015161243560e0860182612384565b508091505092915050565b5f6020820190508181035f8301526124588184612393565b905092915050565b61246981611fe5565b8114612473575f80fd5b50565b5f8135905061248481612460565b92915050565b5f80604083850312156124a05761249f611f5d565b5b5f6124ad8582860161218e565b92505060206124be85828601612476565b9150509250929050565b5f80fd5b5f80fd5b7f4e487b71000000000000000000000000000000000000000000000000000000005f52604160045260245ffd5b6125068261205a565b810181811067ffffffffffffffff82111715612525576125246124d0565b5b80604052505050565b5f612537611f54565b905061254382826124fd565b919050565b5f67ffffffffffffffff821115612562576125616124d0565b5b61256b8261205a565b9050602081019050919050565b828183375f83830152505050565b5f61259861259384612548565b61252e565b9050828152602081018484840111156125b4576125b36124cc565b5b6125bf848285612578565b509392505050565b5f82601f8301126125db576125da6124c8565b5b81356125eb848260208601612586565b91505092915050565b5f805f806080858703121561260c5761260b611f5d565b5b5f6126198782880161218e565b945050602061262a8782880161218e565b935050604061263b878288016120e1565b925050606085013567ffffffffffffffff81111561265c5761265b611f61565b5b612668878288016125c7565b91505092959194509250565b5f81519050919050565b5f82825260208201905092915050565b5f819050602082019050919050565b5f61010083015f8301518482035f8601526126b8828261232e565b91505060208301516126cd6020860182612366565b5060408301516126e06040860182612375565b5060608301516126f36060860182612375565b5060808301516127066080860182612375565b5060a083015161271960a0860182612384565b5060c083015161272c60c0860182612384565b5060e083015161273f60e0860182612384565b508091505092915050565b5f612755838361269d565b905092915050565b5f602082019050919050565b5f61277382612674565b61277d818561267e565b93508360208202850161278f8561268e565b805f5b858110156127ca57848403895281516127ab858261274a565b94506127b68361275d565b925060208a01995050600181019050612792565b50829750879550505050505092915050565b5f6020820190508181035f8301526127f48184612769565b905092915050565b5f806040838503121561281257612811611f5d565b5b5f61281f8582860161218e565b92505060206128308582860161218e565b9150509250929050565b7f4e487b71000000000000000000000000000000000000000000000000000000005f52602260045260245ffd5b5f600282049050600182168061287e57607f821691505b6020821081036128915761289061283a565b5b50919050565b7f4552433732313a20617070726f76616c20746f2063757272656e74206f776e655f8201527f7200000000000000000000000000000000000000000000000000000000000000602082015250565b5f6128f1602183612022565b91506128fc82612897565b604082019050919050565b5f6020820190508181035f83015261291e816128e5565b9050919050565b7f4552433732313a20617070726f76652063616c6c6572206973206e6f7420746f5f8201527f6b656e206f776e6572206f7220617070726f76656420666f7220616c6c000000602082015250565b5f61297f603d83612022565b915061298a82612925565b604082019050919050565b5f6020820190508181035f8301526129ac81612973565b9050919050565b7f4552433732313a207472616e736665722063616c6c6572206973206e6f74206f5f8201527f776e6572206e6f7220617070726f766564000000000000000000000000000000602082015250565b5f612a0d603183612022565b9150612a18826129b3565b604082019050919050565b5f6020820190508181035f830152612a3a81612a01565b9050919050565b7f4e487b71000000000000000000000000000000000000000000000000000000005f52601160045260245ffd5b5f612a78826120c2565b9150612a83836120c2565b9250828203905081811115612a9b57612a9a612a41565b5b92915050565b7f4e487b71000000000000000000000000000000000000000000000000000000005f52603260045260245ffd5b7f4552433732313a20696e76616c696420746f6b656e20494400000000000000005f82015250565b5f612b02601883612022565b9150612b0d82612ace565b602082019050919050565b5f6020820190508181035f830152612b2f81612af6565b9050919050565b7f4552433732313a2061646472657373207a65726f206973206e6f7420612076615f8201527f6c6964206f776e65720000000000000000000000000000000000000000000000602082015250565b5f612b90602983612022565b9150612b9b82612b36565b604082019050919050565b5f6020820190508181035f830152612bbd81612b84565b9050919050565b5f612bce826120c2565b9150612bd9836120c2565b9250828201905080821115612bf157612bf0612a41565b5b92915050565b5f81905092915050565b5f612c0b82612018565b612c158185612bf7565b9350612c25818560208601612032565b80840191505092915050565b5f612c3c8285612c01565b9150612c488284612c01565b91508190509392505050565b7f4552433732313a207472616e736665722066726f6d20696e636f7272656374205f8201527f6f776e6572000000000000000000000000000000000000000000000000000000602082015250565b5f612cae602583612022565b9150612cb982612c54565b604082019050919050565b5f6020820190508181035f830152612cdb81612ca2565b9050919050565b7f4552433732313a207472616e7366657220746f20746865207a65726f206164645f8201527f7265737300000000000000000000000000000000000000000000000000000000602082015250565b5f612d3c602483612022565b9150612d4782612ce2565b604082019050919050565b5f6020820190508181035f830152612d6981612d30565b9050919050565b7f4552433732313a20617070726f766520746f2063616c6c6572000000000000005f82015250565b5f612da4601983612022565b9150612daf82612d70565b602082019050919050565b5f6020820190508181035f830152612dd181612d98565b9050919050565b7f4552433732313a207472616e7366657220746f206e6f6e2045524337323152655f8201527f63656976657220696d706c656d656e7465720000000000000000000000000000602082015250565b5f612e32603283612022565b9150612e3d82612dd8565b604082019050919050565b5f6020820190508181035f830152612e5f81612e26565b9050919050565b7f4e487b71000000000000000000000000000000000000000000000000000000005f52601260045260245ffd5b5f81519050919050565b5f82825260208201905092915050565b5f612eb782612e93565b612ec18185612e9d565b9350612ed1818560208601612032565b612eda8161205a565b840191505092915050565b5f608082019050612ef85f830187612150565b612f056020830186612150565b612f1260408301856121e0565b8181036060830152612f248184612ead565b905095945050505050565b5f81519050612f3d81611f90565b92915050565b5f60208284031215612f5857612f57611f5d565b5b5f612f6584828501612f2f565b91505092915050565b7f4552433732313a206d696e7420746f20746865207a65726f20616464726573735f82015250565b5f612fa2602083612022565b9150612fad82612f6e565b602082019050919050565b5f6020820190508181035f830152612fcf81612f96565b9050919050565b7f4552433732313a20746f6b656e20616c7265616479206d696e746564000000005f82015250565b5f61300a601c83612022565b915061301582612fd6565b602082019050919050565b5f6020820190508181035f83015261303781612ffe565b905091905056fea2646970667358221220137bf419e9103dd2dd40ee2b508d375ea13b015e6898edc7b0b0ebf680443c6664736f6c63430008140033",
  "immutableReferences": {},
  "source": "// SPDX-License-Identifier: MIT\r\npragma solidity ^0.8.0;\r\n\r\nimport \"@openzeppelin/contracts/token/ERC721/ERC721.sol\";\r\n\r\ncontract Land is ERC721 {\r\n    uint256 public cost = 1 ether;\r\n    uint256 public maxSupply = 5;\r\n    uint256 public totalSupply = 0;\r\n\r\n    struct Building {\r\n        string name;\r\n        address owner;\r\n        int256 posX;\r\n        int256 posY;\r\n        int256 posZ;\r\n        uint256 sizeX;\r\n        uint256 sizeY;\r\n        uint256 sizeZ;\r\n    }\r\n\r\n    Building[] public buildings;\r\n\r\n    constructor(\r\n        string memory _name,\r\n        string memory _symbol,\r\n        uint256 _cost\r\n    ) ERC721(_name, _symbol) {\r\n        cost = _cost;\r\n        buildings.push(\r\n            Building({\r\n                name: \"City Hall\",\r\n                owner: address(0x0), // no one owns them\r\n                posX: 0,\r\n                posY: 0,\r\n                posZ: 0,\r\n                sizeX: 10,\r\n                sizeY: 10,\r\n                sizeZ: 10\r\n            })\r\n        );\r\n        buildings.push(Building(\"Stadium\", address(0x0), 0, 10, 0, 10, 5, 3));\r\n        buildings.push(\r\n            Building(\"University\", address(0x0), 0, -10, 0, 10, 5, 3)\r\n        );\r\n        buildings.push(Building(\"Mall\", address(0x0), 10, 0, 0, 5, 25, 5));\r\n        buildings.push(\r\n            Building(\"Cinema Hall\", address(0x0), -10, 0, 0, 5, 25, 5)\r\n        );\r\n    }\r\n\r\n    function mint(uint256 _id) public payable {\r\n        // minting a building first time\r\n        uint256 supply = totalSupply;\r\n        require(supply <= maxSupply);\r\n        require(buildings[_id - 1].owner == address(0x0)); // the building shouldn't have an owner\r\n        require(msg.value >= 1 ether);\r\n\r\n        buildings[_id - 1].owner = msg.sender;\r\n        totalSupply = totalSupply + 1;\r\n        _safeMint(msg.sender, _id);\r\n    }\r\n\r\n    function transferFrom(\r\n        address from,\r\n        address to,\r\n        uint256 tokenId\r\n    ) public override {\r\n        require(\r\n            _isApprovedOrOwner(_msgSender(), tokenId),\r\n            \"ERC721: transfer caller is not owner nor approved\"\r\n        );\r\n\r\n        buildings[tokenId - 1].owner = to;\r\n        _transfer(from, to, tokenId);\r\n    }\r\n\r\n    function safeTransferFrom(\r\n        address from,\r\n        address to,\r\n        uint256 tokenId,\r\n        bytes memory _data\r\n    ) public override {\r\n        require(\r\n            _isApprovedOrOwner(_msgSender(), tokenId),\r\n            \"ERC721: transfer caller is not owner nor approved\"\r\n        );\r\n\r\n        buildings[tokenId - 1].owner = to;\r\n        _safeTransfer(from, to, tokenId, _data);\r\n    }\r\n\r\n    function getBuildings() public view returns (Building[] memory) {\r\n        return buildings;\r\n    }\r\n\r\n    function getBuilding(uint256 _id) public view returns (Building memory) {\r\n        return buildings[_id - 1];\r\n    }\r\n}\r\n",
  "sourcePath": "E:\\Programming\\Github Connected\\Web Development\\Projects\\meta-lands\\src\\contracts\\Land.sol",
  "compiler": {
    "name": "solc",
    "version": "0.8.20+commit.a1b79de6.Emscripten.clang"
  },
  "schemaVersion": "3.4.14",
  "updatedAt": "2023-07-07T10:15:20.925Z",
  "networkType": "ethereum",
  "devdoc": {
    "events": {
      "Approval(address,address,uint256)": {
        "details": "Emitted when `owner` enables `approved` to manage the `tokenId` token."
      },
      "ApprovalForAll(address,address,bool)": {
        "details": "Emitted when `owner` enables or disables (`approved`) `operator` to manage all of its assets."
      },
      "Transfer(address,address,uint256)": {
        "details": "Emitted when `tokenId` token is transferred from `from` to `to`."
      }
    },
    "kind": "dev",
    "methods": {
      "approve(address,uint256)": {
        "details": "See {IERC721-approve}."
      },
      "balanceOf(address)": {
        "details": "See {IERC721-balanceOf}."
      },
      "getApproved(uint256)": {
        "details": "See {IERC721-getApproved}."
      },
      "isApprovedForAll(address,address)": {
        "details": "See {IERC721-isApprovedForAll}."
      },
      "name()": {
        "details": "See {IERC721Metadata-name}."
      },
      "ownerOf(uint256)": {
        "details": "See {IERC721-ownerOf}."
      },
      "safeTransferFrom(address,address,uint256)": {
        "details": "See {IERC721-safeTransferFrom}."
      },
      "setApprovalForAll(address,bool)": {
        "details": "See {IERC721-setApprovalForAll}."
      },
      "supportsInterface(bytes4)": {
        "details": "See {IERC165-supportsInterface}."
      },
      "symbol()": {
        "details": "See {IERC721Metadata-symbol}."
      },
      "tokenURI(uint256)": {
        "details": "See {IERC721Metadata-tokenURI}."
      },
      "transferFrom(address,address,uint256)": {
        "details": "See {IERC721-transferFrom}."
      }
    },
    "version": 1
  },
  "userdoc": {
    "kind": "user",
    "methods": {},
    "version": 1
  }
}